:020000040800F2
:10000000F85C002049030008F7360008F1330008C7
:10001000F5360008A1160008CD3E000800000000DB
:10002000000000000000000000000000890200083D
:100030005917000800000000E5020008ED3900082B
:1000400063030008630300086303000863030008F8
:1000500063030008630300086303000863030008E8
:1000600063030008630300086303000863030008D8
:1000700063030008630300086303000863030008C8
:1000800063030008630300086303000863030008B8
:10009000A516000863030008B116000863030008F2
:1000A0006303000863030008630300086303000898
:1000B000B13A000863030008630300086303000803
:1000C0006303000863030008630300086303000878
:1000D00063030008A93E0008B53E0008630300085A
:1000E0006303000863030008630300086303000858
:1000F0006303000863030008630300086303000848
:100100006303000863030008630300086303000837
:100110006303000863030008BD3A0008C93A0008F9
:100120006303000863030008630300086303000817
:1001300063030008000000000000000063030008E3
:1001400063030008BD160008C91600086303000811
:10015000630300086303000863030008C13E00084E
:1001600063030008630300086303000863030008D7
:1001700063030008630300080000000000000000A3
:10018000630300086303000800F002F800F06CF855
:100190000AA090E8000C82448344AAF10107DA45E2
:1001A00001D100F061F8AFF2090EBAE80F0013F0C8
:1001B000010F18BFFB1A43F001031847405A000013
:1001C000605A00000A444FF0000C10F8013B13F095
:1001D000070408BF10F8014B1D1108BF10F8015BA0
:1001E000641E05D010F8016B641E01F8016BF9D193
:1001F00013F0080F1EBF10F8014BAD1C0C1B09D1EA
:100200006D1E58BF01F801CBFAD505E014F8016B5B
:1002100001F8016B6D1EF9D59142D6D370470000ED
:100220000023002400250026103A28BF78C1FBD8FF
:10023000520728BF30C148BF0B607047662905F0E0
:100240003984642900F05881002070471FB505F0FB
:100250002CFC00F0D3FC04000020002105F098FBEA
:10026000E0601FBD10B510BD00F0E4FD1146FFF7C2
:10027000EDFF03F013FF00F002FE03B4FFF7F2FFFF
:1002800003BC03F04CFE00002C4B19680868B0E872
:10029000F04F80F30988BFF36F8F4FF0000080F3B9
:1002A000118870470000000008480068006880F36B
:1002B00008884FF0000080F3148862B661B6BFF37F
:1002C0004F8FBFF36F8F00DF00BF00BF08ED00E06E
:1002D000DFF80C00016841F470010160704700BF55
:1002E00088ED00E0EFF30980BFF36F8F134B1A68BE
:1002F0001EF0100F08BF20ED108A20E9F04F1060AB
:1003000009B44FF0500080F31188BFF34F8FBFF353
:100310006F8F04F00FFE4FF0000080F3118809BCCE
:1003200019680868B0E8F04F1EF0100F08BFB0EC75
:10033000108A80F30988BFF36F8F70474C05002047
:10034000EFF30580704700000948804709480047DF
:10035000FEE7FEE7FEE7FEE7FEE7FEE7FEE7FEE775
:10036000FEE7FEE704480549054A064B70470000D2
:10037000A13A000889010008F8560020F85C002026
:10038000F8580020F8580020704753EA020C00F09B
:1003900069802DE9F04B4FF00006002B1FBFB3FA28
:1003A00083F503FA05F424FA05F65E4012BF1643FE
:1003B000B2FA82F502FA05F4C5F120051EBF22FA51
:1003C00005FC44EA0C04203556EA044C4FEA144478
:1003D00018BF641C4FF000084FF00009904271EB09
:1003E000030C39D3002919BFB1FA81F701FA07F6D6
:1003F000B0FA80F700FA07F6C7F120071EBF20FA0F
:1004000007FC46EA0C062037B6FBF4FCA7EB050711
:10041000103F07F01F0BCBF120060CFA0BFB2CFA58
:1004200006F644BFB3460026202FA4BF5E464FF019
:10043000000B5BEA060C08BF4FF0010B19EB0B0930
:10044000ABFB027C48EB0608C01B06FB02CC0BFB97
:1004500003CC71EB0C01C1E70B460246414648460E
:10046000BDE8F08B13B54FF000004FF00001AFF383
:100470000080BDE81C4070470FB4044910B503AAC2
:10048000029800F087FB10BC5DF814FB30000020E0
:100490002DE9F0410E460446002020622046E16826
:1004A000884730B3252805D0D4E901219047206A38
:1004B000401CF2E7E168204600278847050018D075
:1004C000A5F14100192802D820354FF400673246C3
:1004D000294620462760FFF7B1FE40B1012804D02D
:1004E000F61D26F007060836D8E7361DD6E728465B
:1004F000DAE7206ABDE8F0812DE9F04106460024E4
:1005000010687529314616A510D0AFF30080002879
:1005100002DA404213A507E031688A0701D512A527
:1005200002E0490704D511A5012401E0AFF30080E2
:1005300000210A2206F1240709E0B0FBF2FCB0FB1F
:10054000F2F302FB1C00303078541846491C002896
:10055000F3D123462A463046BDE8F04100F0B2B858
:10056000000000002D0000002B0000002000000013
:10057000032A40F2308010F0030C00F0158011F8CF
:10058000013BBCF1020F624498BF11F801CB00F8A7
:10059000013B38BF11F8013BA2F1040298BF00F8FB
:1005A00001CB38BF00F8013B11F0030300F02580B8
:1005B000083AC0F0088051F8043B083A51F804CBDF
:1005C000A0E80810F5E7121D5CBF51F8043B40F8A5
:1005D000043BAFF30080D20724BF11F8013B11F8B0
:1005E00001CB48BF11F8012B24BF00F8013B00F8F4
:1005F00001CB48BF00F8012B704710B5203AC0F07E
:100600000B80B1E81850203AA0E81850B1E8185013
:10061000A0E81850BFF4F5AF5FEA027C24BFB1E850
:100620001850A0E8185044BF18C918C0BDE81040C1
:100630005FEA827C24BF51F8043B40F8043B08BFCA
:100640007047D20728BF31F8023B48BF11F8012B91
:1006500028BF20F8023B48BF00F8012B704702F08A
:10066000FF0343EA032242EA024200F0A7BA4FF036
:10067000000200B5134694469646203922BFA0E8F2
:100680000C50A0E80C50B1F12001BFF4F7AF0907FE
:1006900028BFA0E80C5048BF0CC05DF804EB8900EF
:1006A00028BF40F8042B08BF704748BF20F8022B32
:1006B00011F0804F18BF00F8012B7047704770474A
:1006C000704770472DE9F0470D469946924604461B
:1006D00000F124080168880604D5E06921F01001C2
:1006E000216000E00120A84201DD471B00E0002757
:1006F000A1697A1902EB0900081AA0612078C006E6
:1007000002D42046AFF30080002608E0D4E901219E
:100710001AF806009047206A401C761C20624E455D
:10072000F4DB2078C0060AD52046AFF3008006E04F
:10073000D4E9012130209047206A401C2062381EF5
:10074000A7F10107F4DC07E0D4E9012118F805005E
:100750009047206A401C2062281EA5F10105F3DCA9
:100760002046AFF300802078000602D50220BDE8C5
:10077000F0870120FBE770472DE9FF4F0C461E462E
:100780004FF0FF378BB0D2E90001DDF860800A90AE
:100790008A46C1F30A5505B93D46002108464FF087
:1007A0000000BAF1000F00F4400005DA00EB800011
:1007B0004FF4400101EA50004FEA9059B9F1010F9E
:1007C00000DDB9460A9850EA4A000ED044F61050AF
:1007D000A5F2FF3545432F14B8F1000F1ED0754226
:1007E000291E1EDDC9F100021CE0B8F1010F4FF017
:1007F000000001D0302103E0F24305E02154401C09
:10080000B042FBDB30460022002121540B99C1F895
:100810000880C1E900200FB0BDE8F08FBD1B6D1C42
:10082000DEE74A4600DA694206A800F089FA06AB1C
:1008300093E8070003AB83E8070050460A9900F0ED
:1008400067FB8DE80700A0F500501F380090039863
:10085000002D0ADD42F21F014A460844002303A985
:100860000390684600F0D0FD09E0A0F500504A462C
:100870001F38002303A90390684600F0DAFD8DE8D5
:1008800007000004000C03D04FF0FF30410800E0E7
:100890001046B8F1000F03D00022009215461EE06A
:1008A000751E05D400F0AEF9303262556D1EF9D5D3
:1008B000B3460122084302D000227F1C04E02078C6
:1008C000302801D100227F1E002A099784D01DE024
:1008D000112D07DA00F096F9303262556D1C50EA9E
:1008E0000102F5D1084302D00098C8B10EE0002102
:1008F000681E05E0235C625C63542254401E491C60
:100900008142F7DBAB46A81B401E0990002004F88B
:100910000B000B98099AC0F80880C0E9002B7AE711
:1009200011264FF0000857E72DE9F04F884604469E
:10093000D21D22F0070191B0D1E90001CDE90A01F1
:1009400003F0C5FA02460B98C00F01D02D2007E036
:100950002068810701D52B2002E0202101EAC00098
:10096000032A099001D0072A05DB034641462046A9
:1009700000F0A6F90BE12078800601D5E06900E0DF
:100980000620B8F1650F814606D0B8F1660F18D081
:10099000B8F1670F70D131E00020B9F1110F00906C
:1009A00001DB112301E009F101030AAA01A90CA846
:1009B000FFF7E2FEDDE90C70002609F10105834630
:1009C00047E001204B4600904FF000470AAA01A9DA
:1009D0000CA8FFF7D1FEDDE90DB00C995D460026AD
:1009E00010B909F101000D18B9EB050003D4C0F1ED
:1009F000FF3609F10105A5EB09002BE0B9F1010F64
:100A000001DA4FF001090020B9F1110F00904846BA
:100A100001DD112300E003460AAA01A90CA8FFF793
:100A2000ABFEDDE90C704D460026834620780007BA
:100A30000AD4AB4500DA5D4601A8012D04DD411959
:100A400011F8011C302907D04F4502DA17F1040FC5
:100A500004DA012082460FE06D1EEEE7002F02DC73
:100A6000ED1B3E4403E0781CA84200DD7D1CB81B52
:100A700000F1010A4FF000472078000703D4AA458F
:100A800001DB4FF0FF3A0021B7F1004F0DF14308B1
:100A90008DF8431024D002202B23002F01DA7F424F
:100AA0002D230A21021EA0F1010000DC5FB197FB9B
:100AB000F1FC97FBF1F201FB1C7C17460CF1300CAA
:100AC00008F801CDEEE7A8F10100037021880905BF
:100AD00001D5452100E06521A0F1010800F8011CC5
:100AE00009980FA9A1EB0807FF1D00B101204119CA
:100AF00001EBEA70A1693844081A401EA061207811
:100B0000C00602D42046AFF30080099828B1D4E98A
:100B100001219047206A401C20622078C00622D51F
:100B20002046AFF300801EE0002E04DBB34502DD5B
:100B300001A8805D00E03020D4E901219047206ABF
:100B4000401C2062761CAAF101005FEA000A0AD16B
:100B500000F054F8C0680168405CD4E90121904776
:100B6000206A401C2062281EA5F10105DCDC07E09C
:100B7000D4E9012118F8010B9047206A401C20623B
:100B8000381EA7F10107F3DC2046AFF300800320F5
:100B900011B041E6074B70B50D467B4400F07DF87F
:100BA0000446284600F03EF910B14FF0FF3070BD0A
:100BB000204670BD433400004FF000020429C0F00D
:100BC000128010F0030C3FF454ADCCF1040CBCF1D6
:100BD000020F18BF00F8012BA8BF20F8022BA1EBD1
:100BE0000C01FFF746BD5FEAC17C24BF00F8012B72
:100BF00000F8012B48BF00F8012B704700487047F0
:100C0000B456002030B5B0F10A024FEA900E71F1EF
:100C100000034EEA817EB0EB0E0061EB91014FEADA
:100C2000101E4EEA017E10EB0E0041EB11114FEA4F
:100C3000102E4EEA016E10EB0E0041EB11214FEA2F
:100C4000104E4EEA014E10EB0E0041EB11414018E0
:100C500041F100014FEAD00040EA41704FEAD10172
:100C600010EB80054FEA810444EA907444EB0104E0
:100C70006D1944EB0404521BA3414FF0000348BF1D
:100C80000A3200D530BD401C41F1000130BD0000EA
:100C900001694A1C02610878704700B58FB0CDE940
:100CA00001310021059105497944CDE90310114630
:100CB0006846FFF7EDFB0FB000BD0000E5FFFFFF4A
:100CC0002DE9F0411F46044603260168072A01F476
:100CD000006004DB08B116A505E016A503E008B125
:100CE00015A500E015A521F010002060A069C01E28
:100CF000A0610FB1401EA0612046AFF300804FB14C
:100D0000D4E9012138469047206A401C2062C01C6B
:100D1000206206E0206AFAE7D4E9012115F8010B08
:100D20009047761EF8D22046AFF30080BDE8F081F0
:100D30004E414E006E616E00494E4600696E66007F
:100D40002DE9F047814616468AB0354878440DC8EB
:100D50008DE80D0032487844801C03AC0DC884E84F
:100D60000D0041F69B300844372190FBF1F290FBD7
:100D7000F1F5A5F1800501FB12041B3C02D564428C
:100D8000012000E00020DFF898A080460027FA4408
:100D9000AAF1BE0A0EE0E0070AD03246684607EB29
:100DA000470101230AEB810100F043FB8DE80700B6
:100DB00064107F1C002CEED1194F7F44AE3F19E028
:100DC000E80715D007EB04100DF1180A90E80E00A3
:100DD0008AE80E00C068F04201D1981908903246A6
:100DE000012306A903A800F024FB03AB83E8070056
:100DF0006D10641C002DE3D14FF0010332466946AB
:100E0000B8F1000F03A802D000F0FEFA01E000F0F4
:100E100010FBC9E90001C9F808200AB0BDE8F08755
:100E2000684E0000007B00F080007047004870476B
:100E3000945600207546FFF7F9FFAE460500694657
:100E4000534620F00700854618B020B5FFF78AFA10
:100E5000BDE820404FF000064FF000074FF00008BB
:100E60004FF0000B21F00701AC46ACE8C009ACE83C
:100E7000C009ACE8C009ACE8C0098D46704710B5A0
:100E80000446AFF300802046BDE81040FFF7F5B9F7
:100E90004FF0013C50F8042B51F8043B9A4221D109
:100EA000A2EB0C03934313EACC1317D150F8042B95
:100EB00051F8043B9A4215D1A2EB0C03934313EA79
:100EC000CC130BD150F8042B51F8043B9A4209D1B2
:100ED000A2EB0C03934313EACC13DBD04FF00000DA
:100EE000704700BFD01A01BAB1FA81F101F01801C0
:100EF00022FA01F0CB40C1F12001DBB2C0B2C01A2E
:100F00002CFA01F3D11A914311EAC311E6D17047CB
:100F10005FEA400C08BF91F0000F4FEA8C234FEAC4
:100F2000C12243EA51514FEA1C5018BF00F5F0406E
:100F30004FEA300018BF41F000415FEA6C5C00F0FE
:100F40002980BCF1FF3F08BF40F080407047130C80
:100F500006BF12044FF0100C4FF0000C130E04BF2C
:100F600012020CF1080C130F04BF12010CF1040C57
:100F7000930F04BF92000CF1020CD30F04BF520078
:100F80000CF1010C11464FF00002A0F11F00A0EB84
:100F90000C00704711F0004F08BF704731F000415E
:100FA0003FF4D5AF0B0C06BF09044FF0100C4FF007
:100FB000000C0B0E04BF09020CF1080C0B0F04BF50
:100FC00009010CF1040C8B0F04BF89000CF1020C19
:100FD000CB0F04BF49000CF1010CCCF12003A0EBB6
:100FE0000C0022FA03F302FA0CF241EA030100F1C9
:100FF0000100704720F07F4C80EA030023F07F4718
:10100000ACEB070303F57C5300F0004003F1FF0352
:101010002DE980494FEA154B09B44FEA144325EAFC
:101020000B4E24EA03480FF2042606EB1327490867
:101030003E785FEA320203FB0667C7F5000707FB4D
:1010400006F64FEA54374FEAD64606F1020607FB8A
:10105000066CCCF1005C4FEA1C472CEA074C07FBFE
:1010600006F40CFB06F504EB15464FEA961634BF62
:1010700000204FF000404FEAD13706FB07FC4FEA53
:101080001C4C0CFB0BF7D21B03FB0CF761EB0701AD
:101090000CFB0EF7B0EB074072EB17420CFB08F7A6
:1010A00034BFA2EB0742B2EB074261EB17414FEAB4
:1010B0000C444FEA910706FB07FC4FEA1C4C0CFB63
:1010C0000BF7B0EBC74072EB573203FB0CF734BFA2
:1010D000A2EBC742B2EBC74261EB57310CFB0EF7F4
:1010E000B0EBC70072EB57720CFB08F734BFA2EBF2
:1010F000C702B2EBC70261EB5771039F4FEA8161F0
:1011000041EA921104EBCC044FEAD1374FEA8262F4
:1011100006FB07FC42EA90124FEA80604FEA1C4C43
:101120000CFB0BF7D21B03FB0CF761EB07010CFB6D
:101130000EF7B0EB074072EB17420CFB08F734BF19
:10114000A2EB0742B2EB074261EB17414FEA8C5525
:101150004FEA910704EB9C2406FB07FC4FEA1C4C6A
:101160000CFB0BF7B0EBC74072EB573203FB0CF7ED
:1011700034BFA2EBC742B2EBC74261EB57310CFB65
:101180000EF7B0EBC70072EB57720CFB08F734BFD9
:10119000A2EBC702B2EBC70261EB577115EB4C250E
:1011A0004FEA816141EA92114FEA82624FEAD137F8
:1011B00042EA901206FB07FC44F100044FEA80600B
:1011C0004FEA1C4C0CFB0BF7D21B03FB0CF761EB3B
:1011D00007010CFB0EF7B0EB074072EB17420CFB5C
:1011E00008F734BFA2EB0742B2EB074261EB1741AD
:1011F00015EB1C154FEA813141EA92414FEA8232E8
:1012000042EA90424FEA80304FEA0C7644F1000403
:1012100048EA03434EEA0B484FF0000EB2EB080CCD
:1012200071EB030724BF624639464EEB0E0E4FF0BA
:10123000000B0018524149414BEB0B0BB2EB080C71
:1012400071EB03077BF1000B24BF624639464EEB7E
:101250000E0E4FF0000B0018524149414BEB0B0BA7
:10126000B2EB080C71EB03077BF1000B24BF624665
:1012700039464EEB0E0E51EA020718BF46F0010642
:1012800016EB0E7655F1000254F1000103D5BDE8CE
:101290008901BDE80088BDE88901BDE80048B619AC
:1012A000524141EB0101A3F10103704780807F7E31
:1012B0007D7C7B7A797877767675747372717170CC
:1012C0006F6E6E6D6C6C6B6A6A696868676666657E
:1012D0006464636362616160605F5F5E5E5D5D5C0C
:1012E0005C5B5B5A5A59595858575756565555557D
:1012F0005454535352525251515050504F4F4F4EDD
:101300004E4D4D4D4C4C4C4B4B4B4A4A4A4949492A
:10131000484848474747474646464545454444446C
:10132000444343434342424242414141002B9C4695
:1013300030D477002BD01CB54FEA370703B44FF0F9
:1013400010004FF01001BAF1000F06D0BCF1000FF1
:10135000DCBF40F0080040F008014FF000000FBC77
:10136000BDE810400BF1010BBBF1010F08BF5FEAB4
:10137000170722BF12F1010211F101014FF00041E4
:1013800043F1000300F0004043EA00007047F9D346
:101390005708D0E746EA064613F1400F4FEA1646D3
:1013A0001FDD13F1200FDFBF16430A460021203353
:1013B0005B42BED0C3F1200746EA064602FA07F7B1
:1013C0004FEA164646EA0706C3F1200722FA03F25F
:1013D00001FA07F721FA03F14FF0000342EA07028E
:1013E000A7E746EA020646EA06464FEA164646EAF6
:1013F0000106BCBF46EA0646360C4FF000034FF02C
:1014000000024FF0000194E72DE9804C9A46934684
:1014100070B491E8380007C831EA400C48BF34EA9C
:10142000430C03D5FFF7E6FDFFF780FFF0BCBDE8F6
:10143000008C2DE9804C9A46934670B491E83800B0
:1014400007C810F0804F08BF13F0804F03D100F0A1
:1014500005F8FFF76BFFF0BCBDE8008C20F07F477C
:1014600080EA030023F07F4C07EB0C03A3F57C53C9
:1014700000F00040A3F1FE0392F0000F00F0B380F3
:1014800095F0000F00F077802DE901494FEA1140F7
:101490004FEA144621EA004800FB06FC24EA06470E
:1014A00008FB06F607FB08F800FB07F718EB0648F1
:1014B0004CEB164C4FEA124B18EB07484FEA154617
:1014C0004CEB174022EA0B4E0BFB06FC25EA0647C5
:1014D0000EFB06F607FB0EFE0BFB07F71EEB064E98
:1014E0004CEB164C4FF000061EEB074E4CEB174B27
:1014F00018EB0B0840F1000018EB0E0B58EB00083E
:1015000040F100008F1A4FF000013CBFC943661B39
:1015100014BFB5EB040C00213CBFC943F61B4FEAD6
:1015200017444EEA8E0E27EA04454FEA1C4704FB97
:1015300007622CEA074C05FB07F70CFB05F604FBDA
:101540000CFC16EB074642EB174216EB0C4642EB3F
:101550001C421BEB060658EB0202414146EA9E067E
:1015600001D5BDE80189B619524141EB0101A3F152
:101570000103BDE801894FEA14454FEA114724EA07
:10158000054621EA074C05FB07F406FB07F70CFBB1
:1015900006F105FB0CFC11EB074144EB17444FEA45
:1015A000124711EB0C4144EB1C4422EA074C05FBAB
:1015B00007F206FB07F70CFB06F605FB0CFC16EB27
:1015C000074642EB174216EB0C4642EB1C456A18E5
:1015D00054F1000148BF7047B619524141EB010177
:1015E000A3F10103704795F0000F37D04FEA114285
:1015F0004FEA144721EA024624EA074C02FB07F1AE
:1016000006FB07F70CFB06F402FB0CFC14EB07448B
:1016100041EB17414FEA154714EB0C4441EB1C41D9
:1016200025EA074C02FB07F506FB07F70CFB06F65D
:1016300002FB0CFC16EB074645EB174516EB0C4678
:1016400045EB1C42121951F1000148BF7047B61911
:10165000524141EB0101A3F1010370474FEA1445E8
:101660004FEA114724EA054621EA074C05FB07F13A
:1016700006FB07F70CFB06F24FF0000605FB0CFC1F
:1016800012EB074241EB174112EB0C4251EB1C41AC
:1016900048BF7047921841EB0101A3F10103704765
:1016A000FEE70000014800F0E2B90000BC0700209E
:1016B000014800F0DCB90000BC070020014800F040
:1016C000D6B90000E4070020014800F0D0B90000BE
:1016D000E407002030B51E49036800220D6801218F
:1016E0008BB00446AB4213D1CDE9051203920E2014
:1016F0000492CDE908100292079100920192694686
:10170000204600F0A3F8204600F046FC022116E037
:10171000104D2D68AB4215D10F200791CDE9050280
:10172000009201920292CDE90321CDE908106946A9
:10173000204600F08BF8204600F02EFC10212046B9
:1017400000F00DF8002801D000F007F80BB030BD14
:10175000BC070020E4070020704772B6FEE790F84F
:101760002020012A07D0022A05D0416A41F48021B5
:10177000416201207047006842690A4342610020CB
:101780007047F0B590F820500468A468012D05D08A
:10179000022D03D0416A41F4802153E014F0406FE0
:1017A00001D1E5004BD5C4F30164022C03D9416A91
:1017B00041F4000146E00125A5401D608D684FF40D
:1017C000C0739DB1CE6835434E6845EAC6050668CC
:1017D00003EB0417F5514FF4C275076805EB0415C8
:1017E0000E697E51097D012905D009E00E88CD687A
:1017F00045EA4655EBE701684E5946F480764E516E
:101800001179D2F805504FF4C67641EA05250168F2
:1018100006EB04168D511178D2F801204FF4C475EF
:1018200041EA0221026805EB04155151006803EBFF
:101830000411425842F0010242500020F0BD416ABA
:1018400041F4001141620120F0BD000010B590F894
:101850002020012A07D0022A05D0416A41F48021C4
:101860004162012010BD3B48D0F8002242F0010245
:10187000C0F80022D0F8002222F47C52C0F80022E6
:10188000D0F800224B6A42EA0322C0F800220A7D07
:1018900002F01F0301229A40D0F81C329343C0F893
:1018A0001C32CB69B3B9D0F80C329343C0F80C3278
:1018B0008C894B6864F31F434C6900EBC404C4F883
:1018C00040320C890B6864F31F434C6900EBC4047D
:1018D000C4F84432CB69012B16D1D0F80C32134333
:1018E000C0F80C320C884B6864F31F434C6900EB62
:1018F000C404C4F840320C89CB6864F31F434C69BC
:1019000000EBC404C4F844328B69002BD0F80432D5
:101910000ED01343C0F804320B69002BD0F81432F8
:1019200008D01343C0F81432096A012904D008E032
:101930009343EFE79343F5E7D0F81C121143C0F847
:101940001C12D0F8001221F00101C0F80012002092
:1019500010BD000000640040704730B590F8204092
:10196000012C05D0022C03D0416A41F480215DE0B6
:101970000468002955D02469A40754D04FF4D874C2
:10198000056804EB01142D5915F0040595600568F0
:101990002D594ED0ED08556005682C5904F002040D
:1019A000D4604FF4DA74056804EB01142D5905F086
:1019B0000F05156105682D59C5F307259561056863
:1019C0002C59240C54614FF4DC72046802EB0112B0
:1019D000A4581C700468A458240A5C700468A458B5
:1019E000240C9C700468A258120EDA704FF4DE7258
:1019F000046802EB0112A4581C710468A458240A5C
:101A00005C710468A458240C9C710468A258120EDE
:101A1000DA71006881B1016941F0200101610020A3
:101A200030BDE468A8E7416A41F400114162012039
:101A300030BD6D0D1560AFE7C16841F02001C16098
:101A4000EDE70246002092F82010012901D002297A
:101A50000CD111688A68520100D501208A681201F0
:101A600000D5401C8968C90000D5401C70472DE98D
:101A7000F05F0546006800244669D0F80490876846
:101A8000D0F80CB0D0F810A0D0F81880F10748D0EA
:101A9000F90714D001218160B80703D5284600F06A
:101AA000A8FA0CE0780702D54FF4006407E0380785
:101AB00002D54FF4805402E0284600F099FAF80568
:101AC00016D529684FF480708860B80503D528467C
:101AD00000F091FA0CE0780502D544F4005407E0D8
:101AE000380502D544F4804402E0284600F082FA2A
:101AF000F80316D529684FF480308860B80303D501
:101B0000284600F07AFA0CE0780302D544F4004449
:101B100007E0380302D544F4803402E0284600F0A0
:101B20006BFA300707D55FEACB6004D5296810202F
:101B300044F40074C86070074FF0080707D55FEAE7
:101B40000B7004D52868C760284600F0ABF9B007D1
:101B500006D52868C068800702D0284600F0A4F99E
:101B6000700607D55FEACA6004D52968102044F4DE
:101B700080640861B00607D55FEA0A7004D528685A
:101B80000761284600F0D2F9F00606D528680069FA
:101B9000800702D0284600F0CBF9B00308D55FEAF1
:101BA000C96005D5296810204860284600F0F2F980
:101BB000F00307D55FEA097004D528684760284616
:101BC00000F01CFA300446D55FEA497040D5F005B4
:101BD00004D55FEAC87001D044F00104B00504D513
:101BE0005FEA887001D544F00204700504D55FEA0D
:101BF000487001D544F00404300529D518F0700F61
:101C000026D008F07000402815D006DC102809D036
:101C100020280AD0302816D10AE050280ED060289B
:101C200011D10EE044F008040DE044F010040AE085
:101C300044F0200407E044F0400404E044F0800451
:101C400001E044F480742868816921F070018161A9
:101C5000296804204860002C05D0686A2043686227
:101C60002846FFF779FEBDE8F09F70B5040003D069
:101C700094F8200010B104E0012070BD204600F06F
:101C800081F82068016841F00101016000F022FB49
:101C90000546052604E000F01DFB401B0A2811D86C
:101CA00020684068C007F6D02068016821F0020172
:101CB000016000F00FFB05460BE000F00BFB401B42
:101CC0000A2806D9606A40F40030606284F8206017
:101CD000D2E7206840688007EFD4207E0128206882
:101CE00001683DD021F080010160607E01282068FC
:101CF000016838D021F040010160A07E01282068F1
:101D0000016833D021F020010160E07E01282068C5
:101D100001682ED041F010010160207F0128206869
:101D2000016829D021F008010160607F0128206846
:101D3000016824D021F004010160D4E902010843C4
:101D4000D4E90412114308436168491E084321681D
:101D5000C86100206062012084F82000002070BD6E
:101D600041F08001C0E741F04001C5E741F02001AA
:101D7000CAE721F01001CFE741F00801D4E741F0B4
:101D80000401D9E7F0B587B0044614216846FEF790
:101D90006EFC3F4B3F48DFF8F4E01968D4F800C010
:101DA00001243C4A0225032609271030491CF4452A
:101DB0002CD11960012907D1016841F0007101603F
:101DC000006800F000700590106840F0010010609D
:101DD000106802AB00F0010005904FF4C050CDE94F
:101DE000000583E8D00069462B4800F075F9002211
:101DF0000521142000F00CFB142000F0FBFA002257
:101E00000521162000F004FB16203BE0DFF88CE0F3
:101E1000F44539D1D0F800C04CF0806CC0F800C057
:101E2000D0F800C001290CF0806CCDF814C0196006
:101E300007D1016841F000710160006800F0007096
:101E40000590106840F002001060106802AB00F0CE
:101E5000020005904FF44050CDE9000583E8D00022
:101E600069460F4800F038F900220521412000F0B2
:101E7000CFFA412000F0BEFA00220521422000F0F6
:101E8000C7FA422000F0B6FA07B0F0BD0064004087
:101E90001C00002030380240000002400068004072
:101EA000000402407047000000B589B000211D4ABF
:101EB000079108910099116007AB6A460021FFF76E
:101EC0004CFD0098A0F50071013919D0A0F5007102
:101ED000023915D0A0F50071033911D0B0F5017F9A
:101EE0000ED0A0F5007105390AD0A0F500710639B1
:101EF00006D0A0F50071073902D0B0F5027F0ED1EF
:101F000007A901F017FC0098C0B201F02DFC064AA9
:101F1000009902EB8101A1F58051C1F8FC0709B0DD
:101F200000BD00000000002068070020704700008E
:101F300000B589B00021154A0791089100991160F8
:101F400007AB6A460121FFF708FD0098A0F5007174
:101F500001390AD0A0F50071023906D0A0F5007150
:101F6000033902D0B0F5017F0ED107A901F0E2FBE1
:101F70000098C0B201F0F8FB054A009902EB81011C
:101F8000A1F58051C1F8FC0709B000BD0000002098
:101F9000680700207047000070B5044690F82000E4
:101FA000012804D0606A40F40020606218E002203A
:101FB00084F820002068016821F00101016000F030
:101FC00089F905460EE000BF00F084F9401B0A289D
:101FD00008D9606A40F400306062052084F820006F
:101FE000012070BD20684068C007EDD1606270BDFF
:101FF00070477047704770477047704770472DE9CA
:10200000F0410446876D00F065F9064694F8350006
:102010000025022806D08020606584F83450012015
:10202000BDE8F0812068016821F016010160206898
:10203000416921F080014161206C08B9A06C20B198
:102040002068016821F0080101602068016821F022
:10205000010101600CE000F03DF9801B052807D963
:1020600020206065032084F8350084F83450D7E7D9
:1020700020680068C007EED194F85C103F208840CB
:10208000B860012084F8350084F834500020C7E798
:1020900090F83510022903D0802141650120704756
:1020A000052180F835100068016821F00101016008
:1020B0000020704770B5044600F00CF90546601C1E
:1020C00002D004480078044400F004F9401BA04208
:1020D000FAD370BD200000202DE9F84FDFF8BCA135
:1020E0000022012503264FF00F090AF1040BAAF183
:1020F000040E00BF0B6805FA02F42340A34270D11E
:102100000F7907F00307012F01D0022F16D187683E
:102110004FEA420806FA08FC27EA0C07D1F80CC07F
:102120000CFA08FC4CEA070CC0F808C04768A74343
:102130000C79C4F3001494403C4344600C79E443AC
:10214000A4070AD0C4684FEA420C06FA0CF7BC4355
:102150008F6807FA0CF72743C7600C7904F0030473
:10216000022C12D1D40800EB840CDCF82040570775
:10217000FF0E09FA07F824EA0804D1F8108008FADB
:1021800007F848EA0408CCF8208004684FEA420CBB
:1021900006FA0CF7BC430F7907F0030707FA0CF7B0
:1021A000274307604C6814F4403F70D03C4C2768CC
:1021B00047F480472760246822F0030704F4804432
:1021C0000094384C07EB040CDCF8084897074FEAFA
:1021D000177809FA08F7BC43334FB84202D10027F9
:1021E00024E054E0314FB84201D101271EE0304FC6
:1021F000B84201D1022719E02E4FB84201D103277E
:1022000014E02D4FB84201D104270FE02B4FB84204
:1022100001D105270AE02A4FB84201D1062705E07F
:10222000284FB84201D1072700E0082707FA08F72E
:102230002743CCF80878DAF800405746D1F804C0B4
:102240009C435FEACC2C00D51C433C60DBF800408B
:102250005F46D1F804C09C435FEA8C2C00D51C4338
:102260003C60DEF800407746D1F804C09C435FEA4A
:102270008C3C00D51C433C60084F083F3C68D1F8BB
:1022800004C09C435FEACC3C00D51C433C60521C1C
:10229000102AFFF42FAFBDE8F88F0000083C014082
:1022A0004438024000300140000002400004024077
:1022B00000080240000C02400010024000140240DE
:1022C00000180240001C02400AB1816170470904F5
:1022D000FBE70000014880687047000020000020F4
:1022E0000248816802781144816070472000002014
:1022F0000B4810B5016841F400710160016841F4B8
:1023000080610160016841F480710160032000F088
:102310009FF80F2000F006F800F050F8002010BDE4
:10232000003C024030B505461F4887B000240168D4
:1023300041F020010160006806A900F02000009033
:1023400001A800F031F90498A8B100F04DF940005F
:102350001649174AB0FBF1F11648491E026040F2D7
:10236000E732C0E90324C0E90114846100F020FCD5
:10237000040003D015E000F037F9E9E70D4800F05C
:1023800075FC04000DD1372000F034F8102D07D271
:1023900000222946372000F03BF80748056000E09E
:1023A000012407B0204630BD4038024040420F00B3
:1023B00000140040C0090020240000200C4882B016
:1023C000016841F480410160006800F480400090A1
:1023D0000748001F016841F0805101600068002239
:1023E00000F0805000900F21901E02B000F010B855
:1023F00044380240002809DB00F01F02012191400F
:102400004009800000F1E020C0F800117047000092
:10241000F0B40E4B1B680C46C3F30223C3F107054F
:10242000042D00D90425191D072901D2002300E03D
:10243000DB1E012606FA05F1491E214099409E4007
:10244000761E16403143F0BC01F059BD0CED00E0A2
:10245000064900F0070208684FF6FF03184040EAFB
:102460000220034A10430860704700000CED00E0B2
:102470000000FA052DE9F0470E46050065D0DFF8AB
:102480001481D8F80000F7B200F00700B04207D27C
:1024900088F80070D8F8000000F00700B04254D16E
:1024A00028683D4C810712D5400703D5206840F4C9
:1024B000E05020602878000703D5206840F4604091
:1024C00020602068A96820F0F00008432060287888
:1024D000C0072DD0304968680839012812D0022879
:1024E00013D0032811D00968890700292DDA216843
:1024F00021F0030101432160FFF7ECFE814641F228
:10250000883A0EE009688903EFE709688901ECE77A
:10251000FFF7E0FEA0EB0901514502D90320BDE819
:10252000F0872068696800F00C00B0EB810FEFD1F4
:10253000D8F80010404601F00701B14207D90770F2
:10254000006800F00700B04201D00120E7E72878DA
:10255000400705D52068E96820F4E0500843206072
:102560002878000706D52068296920F4604040EAF1
:10257000C100206000F058F82168084AC1F3031137
:10258000515CC8400649086006480068FFF7CAFE6B
:102590000020C4E7003C024008380240245B0008E9
:1025A0002C000020240000200F2202600C4A136837
:1025B00003F003034360136803F0F00383601368C0
:1025C00003F4E053C36012684FF4E05303EAD2020D
:1025D00002610448006800F00700086070470000CE
:1025E00008380240003C0240044805490068096878
:1025F000044AC1F38221515CC84070472C0000207E
:1026000008380240345B000804480549006809683E
:10261000044AC1F34231515CC84070472C0000208D
:1026200008380240345B0008154810B5006810F007
:102630000C02144813D01449042A0FD0082A0ED1D2
:102640000F4C241F2268236802F03F025B0207D56B
:102650002068C0F38810A0FB010106E0084610BD09
:102660002168C1F38811A1FB00010023FDF78DFE55
:102670002168C1F30141491C4900B0FBF1F010BDD4
:10268000083802400024F40040787D012DE9F84F1D
:1026900004006ED02078DFF84C93C007A9F1040540
:1026A0004AD009F104000168C1F38101012908D071
:1026B0000068C0F3810002280AD1D9F80000400266
:1026C00006D52868800337D560680028E1D033E05C
:1026D0006068B0F5803F10D0B0F5A02F286810D00A
:1026E00020F480302860286820F48020286060680A
:1026F000A8B1FFF7EFFD06460DE0286840F48030F2
:10270000F4E740F480202860F7E700BFFFF7E2FD20
:10271000801B642873D828688003F7D50CE0FFF786
:10272000D9FD064605E000BFFFF7D4FD801B6428F5
:10273000F0D828688003F7D42078DFF8AC828007CF
:102740004FF0000A3ED5A748001D016811F00C0F9C
:1027500008D00068C0F3810002280BD1D9F800002E
:10276000400207D42868800716D5E068012800D108
:1027700012E033E1E068B8B10120C8F80000FFF7CB
:10278000A9FD064605E000BFFFF7A4FD801B022857
:10279000C0D828688007F7D52868216920F0F8009C
:1027A00040EAC10028600DE0C8F800A0FFF792FDE4
:1027B000064604E0FFF78EFD801B02281FD828681C
:1027C0008007F7D42078000722D5864F87486169B3
:1027D000703771B101210160FFF77CFD064604E00E
:1027E000FFF778FD801B022809D838688007F7D5E5
:1027F0000EE0C0F800A0FFF76DFD064605E082E0A0
:10280000FFF768FD801B02287DD838688007F7D461
:102810002078400768D5DFF8CCB100270BF13C0BDE
:10282000DBF80000C0000BD4DBF8001041F0805151
:10283000CBF80010DBF80000012700F0805000907A
:102840006B4E3068C00510D4306840F48070306042
:10285000FFF740FD009005E0FFF73CFD0099401AAE
:10286000022850D83068C005F6D55E4EA0686C3698
:1028700001280FD00528306810D020F0010030600A
:10288000306820F004003060A068B8B1FFF722FD86
:1028900000900FE0306840F00100F4E740F00400E1
:1028A0003060F7E7FFF716FD0099411A41F28830D2
:1028B000814266D830688007F4D50EE0FFF70AFD44
:1028C000009007E0FFF706FD0099411A41F28830B9
:1028D000814256D830688007F4D42FB1DBF800105D
:1028E00021F08051CBF80010A069C8B33D49091D03
:1028F0000968C1F3810102294AD00228504607D055
:10290000C8F8600000E03CE0FFF7E4FC04463BE070
:102910004746C8F86000FFF7DDFC064605E000BF4B
:10292000FFF7D8FC801B02282BD828688001F7D439
:10293000D4E907010843A16A2E4A490802EB014184
:10294000626A41EA8211084394F82C1040EA01615E
:10295000C9F8001001203866FFF7BCFC044606E009
:102960003EE000BFFFF7B6FC001B022809D828682C
:102970008001F7D534E000BFFFF7ACFC001B022854
:1029800002D90320BDE8F88F28688001F4D427E03D
:102990000128F7D0D9F80000E26900F480019142E3
:1029A0001CD1226A00F03F01914217D147F6C07155
:1029B000626A0140B1EB821F10D1A26A4FF0FF336F
:1029C00000F4403103EB5202B1EB024F06D194F810
:1029D0002C1000F07060B0EB016F01D00120D1E746
:1029E0000020CFE70438024000004742800E4742F3
:1029F000007000400000FFFF70B5040009D0606A5D
:102A0000002540B125616561A56294F8510040B18F
:102A10000CE0012070BD6068B0F5827FF4D0E56104
:102A2000F2E784F85050204600F044F8022084F881
:102A300051002068016821F040010160A0882189CF
:102A400000F4827001F404410843A18901F400619B
:102A50000843217C01F002010843217D01F00101BE
:102A60000843218B01F400710843217F01F03801F4
:102A7000084394F8201001F080010843218D01F4EF
:102A80000051084321680860A069042101EA104050
:102A900094F8241001F01001084321684860206870
:102AA000C16921F40061C1616565012084F85100AC
:102AB000002070BD10B586B0044614216846FDF7AD
:102AC000D6FD13492068884220D1124800210268AF
:102AD00042F480520260006800F4805005900D4876
:102AE0001438026842F001020260006800F0010040
:102AF0000590F02000900220CDE901010320039011
:102B00000520049069460448FFF7E6FA06B010BDB8
:102B100000300140443802400000024070477047D6
:102B200070B590F83C20012A32D0012480F83C4056
:102B3000022280F83D2003685A689D6822F07006E2
:102B40000A6832435A60134B02689A4214D0B2F1B9
:102B5000804F11D0104B9A420ED0104B9A420BD09E
:102B60000F4B9A4208D00F4B9A4205D00E4B9A4217
:102B700002D00E4B9A4204D1496825F080031943D4
:102B8000916080F83D40002180F83C10084670BDFF
:102B9000022070BD00000140000400400008004019
:102BA000000C0040000401400040014000180040BB
:102BB00010B5040003D094F83D0010B107E00120E7
:102BC00010BD002084F83C00204600F01FF80220D1
:102BD00084F83D00211D206800F07CFF012084F86E
:102BE000460084F83E0084F83F0084F8400084F8F2
:102BF000410084F8420084F8430084F8440084F8DB
:102C0000450084F83D00002010BD000008B50168B3
:102C10001448B1F1804F14D0134A914220D1016879
:102C200041F0100101600068002200F010000090E7
:102C300005213620FFF7ECFB3620BDE80840FFF702
:102C4000D9BB016841F0010101600068002200F079
:102C50000100009005211C20FFF7DAFB1C20ECE7A7
:102C600008BD0000403802400010004090F83D10C0
:102C7000012901D001207047022180F83D10016830
:102C8000CA6842F00102CA6000681149884214D043
:102C9000B0F1804F11D00F4988420ED00E498842C2
:102CA0000BD00E49884208D00D49884205D00D4905
:102CB000884202D00C49884204D1816801F00701A2
:102CC000062903D0016841F001010160002070472E
:102CD000000001400004004000080040000C0040DB
:102CE00000040140004001400018004070B5044657
:102CF00090F83C000025012817D0012684F83C609C
:102D0000022084F83D002068826822F0770222F4D5
:102D10007F4282600868502838D00DDC20284FD0D0
:102D200005DC90B3102811D14AE0022070BD302894
:102D300046D040280AD13BE060282FD070280DD023
:102D4000B0F5805F03D0B0F5005F12D0012584F8A4
:102D50003D60002084F83C00284670BDCB68D1E976
:102D60000121206800F01AFF2068816841F0770196
:102D700009E0CB68D1E90121206800F00FFF20684D
:102D8000816841F480418160E1E719E0CA684968DF
:102D9000206800F015FF5021206806E0CA684968E5
:102DA000206800F01EFF6021206800F001FFCEE7E0
:102DB000CA684968206800F003FF40212068F4E7F2
:102DC000226801461046F0E7704770B50446006877
:102DD00001694FF00005C943890715D4C168C9438B
:102DE000890711D4E91E01610120207720688069DC
:102DF0008007204602D0FFF7E7FF04E000F098F8D4
:102E0000204600F096F8257720680169C9434907F4
:102E100017D4C168C943490713D46FF00401016195
:102E2000022020772068806910F4407F204602D07D
:102E3000FFF7CAFF04E000F07BF8204600F079F8C5
:102E4000257720680169C943090716D4C168C943B9
:102E5000090712D46FF0080101610420207720686F
:102E6000C0698007204602D0FFF7AEFF04E000F003
:102E70005FF8204600F05DF8257720680169C943B6
:102E8000C90617D4C168C943C90613D46FF010012D
:102E90000161082020772068C06910F4407F204637
:102EA00002D0FFF791FF04E000F042F8204600F066
:102EB00040F8257720680169C943C90708D1C1686E
:102EC000C943C90704D1891E0161204600F032F8C8
:102ED00020680169C943090609D4C168C9430906C4
:102EE00005D46FF0800101612046FFF717FE2068CE
:102EF0000169C943490609D4C168C943490605D4D3
:102F00006FF040010161204600F01EF82068016961
:102F1000C94389060BD4C168C943890607D46FF039
:102F2000200101612046BDE87040FFF7F8BD70BD8B
:102F30007047704700680349884201D1FFF7D0B954
:102F40007047000000140040704770477047000051
:102F5000F8B5016804460868CA684B6910F00F0F9D
:102F60004FF0000559D003F0010602F49077374383
:102F700065D0C10705D0D10503D5216C41F0010111
:102F80002164410705D5D90703D0216C41F0020126
:102F90002164810705D5D90703D0216C41F00401D4
:102FA0002164010707D502F02001314303D0216CD1
:102FB00041F008012164216C00293AD0800604D533
:102FC000900602D5204600F04DFE20684069216C35
:102FD000C0F38010090700D460B3204600F01BFE48
:102FE00020684069400621D52068143050E8001F51
:102FF00021F0400140E80012002AF5D1A06BA8B1F1
:103000006C490165A06BFFF743F8002811D0A06B55
:10301000016D01B0BDE8F040084783060FD5930667
:103020000DD52046BDE8F84000F01CBE2046FFF755
:103030008DFFF8BD2046FFF789FF2564F8BD266B9C
:103040002023012E79D1C60677D5D60675D5086816
:10305000486800904869400640D5A16B0868406800
:103060000004000CEAD0A28D8242E7D9E085C8694D
:10307000B0F5807F2DD020680C3050E8001F21F47F
:10308000807140E80012002AF5D12068143050E821
:10309000001F21F0010140E80012002AF5D120684C
:1030A000143050E8001F21F0400140E80012002ACF
:1030B000F5D184F83E30256320680C3050E8001FBD
:1030C00021F0100140E80012002AF5D1A06BFEF7B4
:1030D00096FFA08DE18D401A81B229E0A08DE18D8F
:1030E000401A81B2E08D0028A8D00029A6D020681F
:1030F0000C3050E8002F22F4907240E80026002E99
:10310000F5D12068143050E8002F22F0010240E889
:103110000026002EF5D184F83E30256320680C305F
:1031200050E8002F22F0100240E80023002BF5D1D8
:103130002046FFF70AFFF8BDFFE705062BD5150669
:1031400029D594F83D002128F5D1A068B0F5805F1D
:1031500001D12069B0B1206A411C21622168007848
:103160004860E08C401E0004000CE084E3D120683D
:10317000C16821F08001C1602068C16841F0400150
:10318000C160D8E7206A0088C0F308004860206A60
:10319000801C2062E5E74006CDD55006CBD5CA6835
:1031A000204622F04002CA6084F83D3000F01FF94A
:1031B000C1E70000073C000870B5040004D094F893
:1031C0003D00002510B106E0012070BD84F83C50A0
:1031D000204600F023F8242084F83D002068C168D0
:1031E00021F40051C160204600F09CFD2068016977
:1031F00021F4904101612068416921F02A01416177
:103200002068C16841F40051C1602564202084F821
:103210003D0084F83E00002070BD0000F0B587B08E
:10322000044614216846FDF722FA3E49DFF8F0C053
:10323000276800223B4B14390224032507263A480D
:1032400067451FD11F6847F010071F601B6803F018
:10325000100305930B6843F001030B60096802AF8C
:1032600001F0010105916902CDE9001487E86400CD
:103270006946FEF731FF002205212520FFF7C8F837
:10328000252024E0DFF8A4C0674524D1254B1B1F6F
:103290001F6847F400371F601B6803F40033059371
:1032A0000B6843F001030B60096802AB01F00101F8
:1032B00005910C21CDE9001483E864006946FEF70E
:1032C0000BFF002205212620FFF7A2F82620FFF79A
:1032D00091F807B0F0BD16488742FAD1186840F05F
:1032E00020001860186800F020000590086840F081
:1032F000040008600868029200F004000590C020F5
:10330000CDE900040820CDE9035069460948FEF7DD
:10331000E3FE002205214720FFF77AF84720D6E791
:1033200000100140443802400000024000440040C8
:103330000014014000080240704700002DE9F843E6
:10334000044690F83D001F4616460D4620284CD1F5
:10335000C5B1BEB194F83C00012846D0012084F8E4
:103360003C004FF00008C4F84080212084F83D0064
:10337000FEF7B0FFA6848146E684A068B0F5805FC2
:1033800003D004E00120BDE8F883206928B12E466F
:103390005FF0000584F83C800EE00026FAE780210B
:1033A000204600F045FDA0B9AEB116F8010B21682A
:1033B0004860E08C401EE084E08C4B464FF00002F9
:1033C00000970028EBD14FF04001204600F030FD7F
:1033D00030B10320D7E735F8020BC0F30800E6E769
:1033E000202084F83D000020CDE70220CBE7704785
:1033F000FEE70000104810B50E490160062141604B
:1034000000214FF440328160C0E903124FF4801272
:1034100042610176012242768276C1760177417758
:10342000FEF723FC002803D0BDE81040FEF795B955
:1034300010BD000000640040BC070020104810B51B
:103440000E4901600621416000214FF44032816045
:10345000C0E903124FF480124261017601224276E4
:103460008276C17601774177FEF7FFFB002803D013
:10347000BDE81040FEF771B910BD000000680040C3
:10348000E407002010B50B4A00210B4800F06AFE4B
:103490000A4C084A002160602432094800F062FEAC
:1034A000044AA06048320021064800F05BFEE0605C
:1034B00010BD0000B85A00080139000804000020BF
:1034C0005D3800082539000830B587B014216846FA
:1034D000FDF7CDF81E480024016841F0800101602D
:1034E000016801F080010591016841F0010101606E
:1034F000016801F001010591016841F004010160DA
:10350000016801F004010591016841F002010160C8
:103510000068104D00F0020005900022102128469E
:10352000FEF7D2FE10200121CDE900010220CDE9F5
:10353000021069462846FEF7CFFD2020CDE90004A1
:10354000694628460294FEF7C7FD07B030BD00006B
:103550003038024000080240104810B50E490160A2
:103560004FF48271416000218160C1604FF40072AC
:103570000161C0E905121022C0E9072141628162A0
:103580000A21C162FFF738FA002803D0BDE81040D5
:10359000FEF7E3B810BD0000003001400C08002029
:1035A00010B586B000241748009401940294039447
:1035B00004944FF080410594016042F2CF01C0E9CC
:1035C000011440F2CF71C0E903148461FFF7F0FAEF
:1035D00008B1FEF7C2F84FF48050009069460948E0
:1035E000FFF784FB08B1FEF7B8F8049404A9054876
:1035F0000594FFF795FA002801D0FEF7AEF806B063
:1036000010BD0000640800201CB500240E48009482
:103610000C49019401605321C0E9011463218461C4
:10362000C160FFF7C5FA08B1FEF797F80094694644
:1036300005480194FFF774FA002801D0FEF78DF8D1
:103640001CBD000000100040AC0800200C4810B564
:103650000A4901604FF4E1314160002181600C2290
:10366000C160C0E904128161C161FFF7A5FD0028B6
:1036700003D0BDE81040FEF770B810BD0010014047
:10368000F40800200C4810B50A4901604FF4E131FC
:103690004160002181600C22C160C0E90412816197
:1036A000C161FFF789FD002803D0BDE81040FEF797
:1036B00054B810BD00440040380900200C4810B533
:1036C0000A4901604FF4E1314160002181600C2220
:1036D000C160C0E904128161C161FFF76DFD00287E
:1036E00003D0BDE81040FEF738B810BD001401400B
:1036F0007C090020FEE7FEE730B587B005460020D4
:1037000000920290CDE903030C462846FEF799F992
:10371000C3B2002BF9D00120FEF7CCFC01232246D6
:1037200069462846FEF72DF8002800D0022007B091
:1037300030BD00005FF0010202F5007398420DD128
:10374000084BC2EBC20018440B6840F8073D8B8859
:10375000838089798171D0B200F01CB8521C092A8B
:10376000EADB7047480A0020C0EBC0010748084464
:1037700010F8051D4078CA0904D0054A02EB012162
:103780000844704700EB012070470000480A002001
:103790000100FFFF30B5411E174AC1EBC1039C1861
:1037A000D25C647888B004EB0223134C4DF82130CE
:1037B000203C401E54F821209D1AA4F12002B5F5AA
:1037C000805F52F8200003DBA0F5F850FF3805E0D9
:1037D00015F5805F04DC41F6FF75284442F82100AE
:1037E00044F8213052F82100034A1844383242F894
:1037F000210008B030BD0000480A002010B54A1E64
:10380000072A23D8124A904202DD5242904200DB3E
:10381000104604290ED80F4B040A03EB41014FF464
:10382000007201F8024D082348700A490A48FFF760
:1038300063FF09E0091F074A030AC9B2083A02EB0D
:10384000410101F8023D4870002010BD012010BD6B
:10385000F0D8FFFF44010020E40700202DED048B89
:10386000CCB0F3EE038A234C1D4D9FED1E8A9FEDD5
:103870001E9A1E4E1E4FDFF8808004F10C0900BF17
:1038800095ED000A1A4820EE080A20EE280AC0EE3C
:10389000090A96ED000AB8EEC00A00F0A9FC34222D
:1038A000134931A8FCF7A9FEC42249466846FCF733
:1038B000A4FE94E80E003EA800F09EFB34223EA930
:1038C0000E48FCF79AFE98ED000AD7ED0C0A0B485B
:1038D000B8EEC00A00F08CFC0A2000F007FCCFE72D
:1038E00004000020000000460000B443800A0020CD
:1038F00034000020680000206807002088070020AE
:10390000074C00BF94ED0C0A0121BDEEC00A10EE79
:10391000100AFFF773FF0A2000F0E8FBF2E700004F
:10392000880700202DED048BDFF8A080DFF8909051
:103930009FED248A9FED249ADFED259ADFF894B05D
:1039400086B0F3EE038AA8F1100A00BF99ED000AD1
:10395000B8EEC00A60EE080A80EEA80A20EE090A56
:1039600000F0DEFA1C4888ED000AD0ED0C0A80EE6B
:10397000A90A00F005FB88ED010A10EE104ADAF8FA
:10398000000002F021F806460F46204602F01CF81F
:1039900004460D46D8F8000002F016F841EC100B72
:1039A000DBF8000053EC102BCDE903708DE87000BC
:1039B0000AA0FCF761FD012000F098FBC6E70000BB
:1039C000800A0020000000390000B44314000020E9
:1039D0000000C842380100203400002025662C2554
:1039E000662C25662C25640A0000000010B54FF0F7
:1039F000E020006901F016FE012803D0BDE8104068
:103A000001F044BB10BD000030B593B030216846D2
:103A1000FCF72DFE14210CA8FCF729FE1E480025FA
:103A2000016841F080510160006800F08050119001
:103A30001A48016841F4804101600068022400F4E2
:103A40008040119001200090000401908001CDE998
:103A50000640192008904FF4A870CDE9090404200D
:103A60000B906846FEF712FE08B172B6FEE70CA98D
:103A70000F2081E831004FF4A0500F904FF4805098
:103A8000109005210CA8FEF7F5FC002801D072B6B5
:103A9000FEE713B030BD0000403802400070004027
:103AA0000248016841F470010160704788ED00E050
:103AB0000148FFF78AB90000640800200148FFF7B9
:103AC00084B90000AC0800200148FFF77EB900006F
:103AD000C0090020F0B50268254C264D264E274F20
:103AE000274B4FF0804CA04209D0604507D0A84238
:103AF00005D0B04203D0B84201D0984204D122F0A0
:103B0000700E4A6842EA0E02A0421BD0604519D0EE
:103B1000A84217D0B04215D0B84213D0984211D065
:103B2000184DA8420ED0184DA8420BD0174DA842F0
:103B300008D0174DA84205D0164DA84202D0164D08
:103B4000A84203D122F44075CA682A434D6922F085
:103B500080022A4302608A68C2620A688262A042C6
:103B600001D0984201D10969016301214161F0BD91
:103B7000000001400004004000080040000C00402C
:103B80000004014000400140004401400048014061
:103B900000180040001C00400020004010B5846860
:103BA00042EA032224F47F440A432243826010BD88
:103BB000826822F070020A4342F007018160704778
:103BC00010B5036A046A24F001040462846924F0D5
:103BD000F00444EA021423F00A020A4384610262F8
:103BE00010BD10B5036A23F0100303628369046AF1
:103BF00023F4704343EA023224F0A00343EA0111A4
:103C00008261016210BD10B5806B0021C185C18445
:103C1000FFF79CF910BD01680C3151E8002F22F428
:103C2000907241E80023002BF5D10168143151E86E
:103C3000002F22F0010241E80023002BF5D1016B97
:103C4000012909D101680C3151E8002F22F010023E
:103C500041E80023002BF5D1202180F83E100021FF
:103C60000163704708B590F83E10222901D0022068
:103C700008BD82684FF480539A4201D1016921B195
:103C8000816A9A421BD04AB10AE00268816A52688E
:103C9000C2F308020A80816A891C08E0026972B1D5
:103CA0000268526802F07F020A70816A491C8162D0
:103CB000C18D491E0904090CC18503D019E00268B1
:103CC0005268F1E70168CA6822F02002CA60016800
:103CD000CA6822F48072CA6001684A6922F001024F
:103CE0004A61202180F83E10016B012903D0FFF7C3
:103CF00023FB002008BD0021016301680C3151E85D
:103D0000002F22F0100241E80023002BF5D10168BA
:103D10000A68D20602D50A6849680091818DFFF7CA
:103D200014F9E6E770B5044600680169E26821F419
:103D30004051114301612169A068E269084361694A
:103D4000114308432168CA6849F20C639A4302434D
:103D5000CA6020684169A26921F440711143416140
:103D600031492068884202D03049884202D1FEF7AA
:103D70004BFC01E0FEF738FCE269002319216425C1
:103D80003226B2F5004F626828D0A0FB0101930FE4
:103D90009200FCF7FAFA0146B0FBF5F06FF018025A
:103DA000504301EB800006EB0010B0FBF5F000F093
:103DB000F002B1FBF5F002EB0012B1FBF5F06FF091
:103DC0001803584301EB800006EB0010B0FBF5F040
:103DD00000F00F0021681044886070BDA0FB010155
:103DE00092185B41FCF7D1FA0146B0FBF5F00201F5
:103DF000B1FBF5F06FF01803584301EB800006EBC0
:103E0000C000B0FBF5F000F0F80002EB4002B1FB9F
:103E1000F5F0584301EB800006EBC000B0FBF5F075
:103E200000F00700D6E70000001001400014014038
:103E30002DE9F041984617460E460446069D27E0B8
:103E4000681C25D02DB1FEF745FAA0EB0800A8426A
:103E50001ED920680C3050E8001F21F4D07140E8D2
:103E60000012002AF5D12068143050E8001F21F01C
:103E7000010140E80012002AF5D1202084F83D001D
:103E800084F83E00002084F83C000320BDE8F08167
:103E90002068006836EA000004D00020B842CFD085
:103EA0000020F3E70120F9E70148FFF751B80000CF
:103EB000F40800200148FFF74BB800003809002043
:103EC0000148FFF745B800007C090020FEE703B475
:103ED00001984100009850EAC12018BF04204A0D03
:103EE00018BF40F0010040F2FF72B2EB515F08BF13
:103EF00040F00200012808BF052002B07047090702
:103F0000090E002804DB00F1E02080F8001470475F
:103F100000F00F0000F1E02080F8141D704770479A
:103F2000144910B5144A81ED010A632002EB8003A5
:103F3000401E53ED010A0028C3ED000AF6DC82EDB5
:103F4000000A9FED0E0A0B4B002081ED000A0C3396
:103F500003EB8004D4ED000A02EB8004401C94EDD6
:103F6000001A642800EE810AF2DB81ED000A81ED7F
:103F7000020A10BDCC050020745300200000000090
:103F8000144910B5144A81ED010A632002EB800345
:103F9000401ED3ED630A0028C3ED640AF6DC82ED0F
:103FA000640A9FED0E0A0B4B002081ED000A0C33D2
:103FB00003EB8004D4ED000A02EB8004401C94ED76
:103FC000641A642800EE810AF2DB81ED000A81EDBB
:103FD000020A10BDCC050020745300200000000030
:103FE00013B54FF6FF73012269460248FFF7A6F9A1
:103FF00000981CBD380900200FB4DFED210A70B510
:1040000006469DED3F0A2049204D20EE201AB3EED2
:10401000030A2CACC1EE000A9FED1A0A20EE800ABA
:1040200010EE100A884204DC10EE100A184988428B
:1040300006D9342205A92046FCF7DFFA002016E055
:1040400010EE100A1349884204DC10EE100A1249DF
:10405000884206D9342212A92046FCF7CEFA012064
:1040600005E034221FA92046FCF7C7FA0220286089
:10407000342221463046FCF7C0FA70BC5DF814FBD0
:10408000000000390000B4430000C842380100209D
:104090000000C8C20000F0410000F0C1FEF728F99E
:1040A000FFF7B2FCFFF710FAFFF7A4F9FFF7C6F924
:1040B000FFF7AAFAFFF774FAFFF7C8FAFFF7FEFA5C
:1040C000FFF74AFAFFF7DEFA0648FDF703FB06485A
:1040D000FDF700FB00F018F8FFF7D4F900F026F820
:1040E000FEE70000BC070020E407002010B5EFF356
:1040F000058111B16FF0050403E0002408B100F060
:1041000065FE204610BD0000EFF3058010B16FF092
:10411000050070470448016811B14FF0FF30704747
:1041200001210160002070479C05002010B5EFF3CD
:10413000058010B16FF0050010BD08480168012925
:1041400002D04FF0FF3010BD054A002182F8141D47
:104150000221016000F0A2FE002010BD9C0500209D
:104160000BE000E02DE9FF414FEA01034FF00005AD
:10417000EFF30581039549BB40B380271821002444
:104180004AB3166806B1344696691EB13146761EAA
:10419000382E02D21679F60703D0002004B0BDE80D
:1041A000F081566906B1B708D2F808C0BCF1000F1B
:1041B0000DD0D5685C2D18D312693AB136B18DE8AF
:1041C00006103A46214601F002FA03900DE0D66847
:1041D0005EB912694AB903AACDE90012BAB2214602
:1041E00001F0C8F9012800D003950398D6E7000034
:1041F000D0ED061A70EEC00AC0ED071A9FED311A15
:10420000C0ED060A90ED030AF4EEC00AF1EE10FAD2
:1042100008DAB1EE400AF4EEC00AF1EE10FA01D964
:10422000F0EE410AC0ED060AF5EEC00AF1EE10FA12
:1042300006D090ED080A30EE200A80ED080A03E06F
:1042400080ED081AB0EE410A90ED041AB4EEC10AEE
:10425000F1EE10FA06DAB1EE411AB4EEC10AF1EE4F
:1042600010FA01D8B0EE410A80ED080A90ED001A6C
:1042700021EE201A70EEE10A80ED091A90ED012A74
:1042800022EE000A80ED0A0AD0ED021A31EE000A91
:1042900060EEA10AC0ED0B0A30EE200AD0ED050A4F
:1042A000B4EEE00AF1EE10FA06DAF1EE600AB4EECE
:1042B000E00AF1EE10FA01D8B0EE600A80ED0C0AC7
:1042C00070470000000000002DE9F041134C0F463C
:1042D0000546E6682068001D00F044FC681C07D114
:1042E00037B12168BDE8F0410D48091D00F08ABCD6
:1042F00020683544B5424560216805D2A06BBDE811
:10430000F041091D00F066BC606B091D00F062FC05
:10431000A06A854200D2A562BDE8F0814C0500206C
:10432000900F00202DE9F041054600F077FC2D4C60
:10433000A068401CA06020682B4F10B1606930B3AA
:104340002BE02560A068012827D1002606EB860017
:1043500007EB800000F030FC761C382EF6D32348A3
:1043600000F02AFC2148143000F026FC1F482830B9
:1043700000F022FC1D483C3000F01EFC1B48503071
:1043800000F01AFC194860631430A06305E020684F
:10439000E96AC06A884200D82560606A401C606291
:1043A0006864E86A2169884200D9206100EB8000D6
:1043B00007EB8000291D00F025FC00F04FFC606930
:1043C00000280CD02068E96AC06A884207D20849F0
:1043D0004FF080500860BFF34F8FBFF36F8FBDE881
:1043E000F08100004C050020E00A0020400F002072
:1043F00004ED00E038B500F011FC104C2068C8B99D
:104400000F4800F0D9FB0E48143000F0D5FB0C48E3
:10441000E060143020610A4B0020F03B009003F173
:10442000500210210A2000F047FE206010B105A1C3
:1044300000F096FCBDE8384000F010BC8805002074
:1044400094100020546D72510000000030B4026CD2
:104450000B46002A0BD0C1681144C1608468A14298
:1044600001D30168C16030BC1846FCF781B830BC8C
:1044700070472DE9F041856B174604460026026C13
:1044800082B1C7B1E068FCF773F8E168206C091AE3
:10449000E1602268914202D2A168081AE060022F0E
:1044A00016D017E02068A8B9A06801F033F90646D5
:1044B0000020A0600EE06068FCF75AF8216C60688C
:1044C00008446060A168884204D32068606001E00D
:1044D00005B16D1E6D1CA5633046BDE8F08110B5B9
:1044E000044690F8590058B101280CD002280FD08A
:1044F000502080F31188BFF34F8FBFF36F8FFEE71B
:10450000206B00F0BFFB2046BDE8104000F0BABBB6
:1045100010BD000010484FF47051420706D0C01D76
:104520000D4920F00700411AC1F570510B4A0023D4
:104530000144C2E900030839183A21F0070111606B
:104540004B600B600B1AC0E9001393604FF0004002
:10455000536050617047000074170020B8050020B8
:10456000144E154CA6F29C474FF08058DFF84C9043
:1045700012E000BF00F052FBF068C568281D00F093
:10458000F1FAA068401EA0606068401E606000F004
:1045900065FB2846FFF7A3FF60680028EAD138686A
:1045A0000128F9D9C9F80080BFF34F8FBFF36F8F8F
:1045B000F2E700007C0F00204C05002004ED00E035
:1045C00070B51D46049C51B1C4F80020C4E90F0128
:1045D0000121204600F0A4FD84F84C5070BD2460F9
:1045E000F4E700002DE9F05F8846DDE90B941546FD
:1045F000834691009A460A9EA522206BFCF72FF86D
:104600006FF00301206B01EB8501084420F00707E0
:10461000780707D0502080F31188BFF34F8FBFF386
:104620006F8FFEE70025B8F1000F0FD05FF000009C
:10463000221818F8001082F8341018F8001011B180
:10464000401C1028F4D384F8435001E084F834501F
:10465000382E00D33726E662C4E91365201D00F02A
:10466000B6FA04F1180000F0B2FA2461C6F138007D
:104670006462A061656584F85850524659463846D0
:1046800000F05AFA2060B9F1000F01D0C9F80040DB
:10469000BDE8F09F30B5114900E011460A6882423A
:1046A000FBD34B685C18844203D1406818444860CF
:1046B000084643681C18944209D1084C183C2468E9
:1046C000A24209D052681A4442600A681268026025
:1046D000814200D0086030BD0460F9E7B8050020D1
:1046E00070B5002441600B4D0061914206D8D11A8B
:1046F0008269914206D2011D286907E09A4203D2DD
:10470000994201D3012403E0011DE86800F062FA38
:10471000204670BD8805002010B5044600F07EFAE2
:10472000A06B28B15FF0000400F098FA204610BD9D
:104730000124F9E730B589B03C4D6EE004980028BB
:1047400006DADDE90601059A90470498002864DB43
:10475000069C606910B1201D00F004FA03A800F067
:10476000D7F8024604980A2857D2DFE800F005057A
:10477000052D334A05052D3394F8280040F001003B
:1047800084F828000599A069059B01442046FFF79D
:10479000A7FF68B3216A2046884794F8280040079D
:1047A0003BD5002000900598A169002342181946C6
:1047B000204601F0B9F8D8B9502080F31188BFF332
:1047C0004F8FBFF36F8FFEE714F8280F20F0010022
:1047D000207022E094F8280040F0010084F82800BE
:1047E0000598A06128B1811813462046FFF778FF8D
:1047F00013E0502080F31188BFF34F8FBFF36F8F0A
:10480000FEE794F82800810703D4204600F03AFA26
:1048100003E020F0010084F82800002204A92868A1
:1048200000F0D2FD002889D109B030BD88050020F4
:104830002DE9FC410F46054600F074FB01A800F08D
:1048400067F80446019818B100F0DCFFBDE8FC8170
:10485000254EAFB130690068D0B30027291B3A4616
:10486000306800F091FA00F0CDFF0028EED11F492A
:104870004FF080500860BFF34F8FBFF36F8FE5E7B5
:10488000A542EBD800F0BEFFF0682746C068C468B8
:10489000201D00F067F994F82800410719D5A06998
:1048A0002B4641193A462046FFF71AFFA8B10020CF
:1048B0000346014600902A46204601F035F860B9CB
:1048C000502080F31188BFF34F8FBFF36F8FFEE747
:1048D00007E020F0010084F82800216A204688477C
:1048E000B4E70127BAE700008805002004ED00E0E6
:1048F0000648416B096829B1416BC968C9684968B4
:10490000816270474FF0FF31FAE700004C0500204C
:1049100070B5054600F094FE064E0446B068844229
:1049200003D200F009F8012000E0002028602046B2
:10493000B46070BD88050020F8B5194D20E0C0684E
:10494000C4680668201D00F00DF9216A20468847DA
:1049500094F82800400713D5A0693044B04206D926
:1049600024616060211DE86800F034F908E000204F
:104970000346014600903246204600F0D5FF38B18C
:10498000E86801680029DAD12969C5E90310F8BD92
:10499000502080F31188BFF34F8FBFF36F8FFEE776
:1049A0008805002008484068401C4FF0500080F304
:1049B000118804D0BFF34F8FBFF36F8FFEE7BFF3B3
:1049C0004F8FBFF36F8FFEE7C0050020074CE068F4
:1049D000016841B1C0680021D0F80000FFF728FF4E
:1049E000FFF7A8FEF3E701210020F7E78805002084
:1049F0002DE9F041044600F011F994F9455004F115
:104A0000240609E0606A48B1304600F0C3FE08B1F0
:104A100000F00AFA6D1E6DB2002DF3DC4FF0FF3688
:104A200084F8456000F01AF900F0F8F894F9445061
:104A300004F1100709E0206948B1384600F0AAFEE9
:104A400008B100F0F1F96D1E6DB2002DF3DC84F8B1
:104A50004460BDE8F04100F001B900002DE9F041EB
:104A60000546002700F05EFA324E306808B9FFF7BD
:104A700051FD706905424ED1C5B3083568070ED0A7
:104A800005F00700C0F108000544680707D0502072
:104A900080F31188BFF34F8FBFF36F8FFEE72DB305
:104AA0007068854237D82348183001460C6801E009
:104AB00020460C466168A94202D221680029F7D13C
:104AC00031688C4227D00768216801606068083728
:104AD000411B10290FD96019420708D0502080F3DC
:104AE0001188BFF34F8FBFF36F8FFEE713E0416074
:104AF0006560FFF7CFFD61687068401A7060B2684A
:104B0000904200D2B060706901430020C4E9000106
:104B1000F068401CF06000F075FE780707D0502068
:104B200080F31188BFF34F8FBFF36F8FFEE73846D6
:104B3000BDE8F081A005002010B5031F4FF0807480
:104B40001C601B1F21F001011960191F044B0B6031
:104B500014390A60091F6FF0020244380A6010BD60
:104B6000A5490008D0E9013201699A60D0E9012322
:104B70005A604A68824201D182684A60002202611A
:104B80000868401E0860086870470000034B036017
:104B900003F15C000860802010607047BC100020AA
:104BA000044B036003F15C0008604FF480701060F8
:104BB000704700001813002000F108014FF0FF3289
:104BC000C0E90112C160016100210160704700214C
:104BD0000161704730B50B685A1C02D000F1080221
:104BE00002E0026904E02246546825689D42FAD931
:104BF00053684B6099608A60516008610168491C84
:104C0000016030BD42684A6093688B609368596068
:104C1000916008610168491C01607047502080F371
:104C20001188BFF34F8FBFF36F8F0A494868401C4C
:104C3000486001280CD10848006810F0FF0F07D029
:104C4000502080F31188BFF34F8FBFF36F8FFEE7C3
:104C500070470000C005002004ED00E008494868E6
:104C600028B1401E486001D180F311887047502060
:104C700080F31188BFF34F8FBFF36F8FFEE7000003
:104C8000C005002070B500282AD0164DA0F10804F8
:104C900060686969084207D1502080F31188BFF32A
:104CA0004F8FBFF36F8FFEE722683AB1502080F339
:104CB0001188BFF34F8FBFF36F8FFEE788436060AB
:104CC00000F030F960686968084468602046FFF7C2
:104CD000E1FC2869401C2861BDE8704000F092BDED
:104CE00070BD0000A00500204FF0E0200021016110
:104CF000816105494FF47A720968B1FBF2F1491EEE
:104D000041610721016170472C00002010B5FBF7BD
:104D100017FB114910280ED300F1E02090F8F003A2
:104D20000A78904207D2502080F31188BFF34F8F4A
:104D3000BFF36F8FFEE709480068896800F4E06000
:104D4000884207D9502080F31188BFF34F8FBFF3FB
:104D50006F8FFEE710BD0000C00500200CED00E0E5
:104D600010B5084B002200BF53F832401CB1521C52
:104D7000082AF9D310BD43F8321003EBC201486092
:104D800010BD0000A00A002070B515460E4604466E
:104D9000FFF744FF94F944100020491C01D184F826
:104DA000440094F94510491C01D184F84500FFF7EF
:104DB00055FFA06B28B92A46314604F1240000F0C3
:104DC00051F82046BDE87040FFF712BE10B5020052
:104DD00014D00F48006B38B1502080F31188BFF316
:104DE0004F8FBFF36F8FFEE700F09CF80021104655
:104DF000FFF76AFA00F006FD002807D105494FF0D9
:104E000080500860BFF34F8FBFF36F8F10BD00005D
:104E10004C05002004ED00E002490A6A0260C968FE
:104E2000416070474C05002001490120C86170476E
:104E30004C05002010B50C4650B1094909681831DD
:104E4000FFF7C8FE2046BDE810400121FFF73CBA3D
:104E5000502080F31188BFF34F8FBFF36F8FFEE7B1
:104E60004C05002070B514460D4668B10A49096822
:104E70001831FFF7C7FE0CB14FF0FF352146284629
:104E8000BDE87040FFF720BA502080F31188BFF3CF
:104E90004F8FBFF36F8FFEE74C05002030B587B012
:104EA0000024039405AA04A903A80494FFF76EFE46
:104EB000DDE903010094CDE90110002315A1174895
:104EC000059A00F084FB164D0028E8621FD000F020
:104ED000FBFC012809D0401C19D1502080F3118817
:104EE000BFF34F8FBFF36F8FFEE7502080F3118821
:104EF000BFF34F8FBFF36F8F4FF0FF30A8620120D9
:104F00006861EC6007B0BDE8304000F045B807B01C
:104F100030BD000049444C450000000061450008D8
:104F20004C0500200248016B491C016370470000DA
:104F30004C050020164810B5016B11B10121C1616B
:104F400010BD0021C1610169124A01E0B9B1491ED9
:104F500001EB810352F82330002BF7D001EB8103E2
:104F600002EB830202F1080453685B685360A342BA
:104F700001D15B685360DA680260016110BD5020A6
:104F800080F31188BFF34F8FBFF36F8FFEE70000F0
:104F90004C050020E00A00201CB537480168374A5C
:104FA000914207D1502080F31188BFF34F8FBFF398
:104FB0006F8FFEE700683149491E884207D15020B3
:104FC00080F31188BFF34F8FBFF36F8FFEE72C493B
:104FD00008780190FF20087008788DF800009DF88F
:104FE00000009DF8002000F0F000904207D0502013
:104FF00080F31188BFF34F8FBFF36F8FFEE79DF8EB
:105000000000204C00F0500020700720A06005E058
:105010009DF8002052008DF80020401E9DF80020D1
:105020001206F5D4A060032807D0502080F3118821
:10503000BFF34F8FBFF36F8FFEE74FF44070A06058
:10504000019808700C482030016841F4700101603B
:10505000016841F070410160FFF746FE002060608A
:10506000FBF736F90848016841F040410160FBF761
:105070001BF900201CBD000000ED00E071C20F41D3
:1050800000E400E0C005002034EF00E010B550203F
:1050900080F31188BFF34F8FBFF36F8F00F0D6FA04
:1050A00018B104494FF080500860002080F3118847
:1050B00010BD000004ED00E038B5049D18B153B1F7
:1050C000CAB181B120E0502080F31188BFF34F8F27
:1050D000BFF36F8FFEE7502080F31188BFF34F8F2F
:1050E000BFF36F8FFEE7502080F31188BFF34F8F1F
:1050F000BFF36F8FFEE739B1502080F31188BFF303
:105100004F8FBFF36F8FFEE750241C46012384F8B6
:1051100046302B460094FFF753FA204638BD000076
:1051200070B50D46040025D0FFF778FDD4E90F20B7
:10513000216802FB0011A1600021A1632168616068
:105140000A46D4E90F01401E00FB0121E16021461F
:105150004FF0FF3001F8440F487004F110008DB19A
:10516000FFF72AFD04F12400FFF726FDFFF776FD87
:10517000012070BD502080F31188BFF34F8FBFF323
:105180006F8FFEE721690029F0D000F003FB0028B3
:10519000ECD004494FF080500860BFF34F8FBFF34D
:1051A0006F8FE3E704ED00E02DE9FF4782B01D4675
:1051B0008A464FF00008040003D0BAF1000F08D06F
:1051C00011E0502080F31188BFF34F8FBFF36F8F32
:1051D000FEE7206C38B1502080F31188BFF34F8F69
:1051E000BFF36F8FFEE7022D0AD1E06B012807D0D5
:1051F000502080F31188BFF34F8FBFF36F8FFEE70E
:1052000000F010FA3F4F4FF000094FF0805648B9B8
:10521000049838B1502080F31188BFF34F8FBFF34B
:105220006F8FFEE7FFF7FAFCA06BE16B884207D3B4
:10523000022D05D00498D0B1B8F1000F1AD01EE0AD
:105240002A4651462046FFF714F9616A19B104F164
:10525000240000F09FFA20B13E60BFF34F8FBFF3F0
:105260006F8FFFF7FBFC012006B0BDE8F087FFF76A
:10527000F5FC22E06846FFF7CFFD4FF00108FFF78D
:10528000EDFCFFF74FFEFFF7C9FC94F94400401C0A
:1052900001D184F8449094F94500401C01D184F870
:1052A0004590FFF7DBFC04A9684600F029F930B10E
:1052B0002046FFF79DFB00F0A5FA0020D4E7FFF79A
:1052C000ADFCA06BE16B884213D1FFF7C7FC04F182
:1052D00010000499FFF7AEFD2046FFF789FB00F0B0
:1052E00091FA00289ED13E60BFF34F8FBFF36F8FBE
:1052F00098E7FFF7B3FC2046FFF77AFB00F082FA4D
:1053000090E7000004ED00E02DE9F0471F469046CD
:105310008946040003D0B9F1000F08D011E05020F5
:1053200080F31188BFF34F8FBFF36F8FFEE7206CC0
:1053300038B1502080F31188BFF34F8FBFF36F8FC8
:10534000FEE7022F0AD1E06B012807D0502080F33E
:105350001188BFF34F8FBFF36F8FFEE7FFF7D6FCC7
:105360005020EFF3118680F31188BFF34F8FBFF306
:105370006F8FA06BE16B884206D3022F04D0002010
:1053800086F31188BDE8F08794F94550A06B3A4642
:1053900049462046FFF76DF8681C04D06D1C84F860
:1053A00045500120ECE7606A0028FAD004F124009F
:1053B00000F0F0F90028F4D0B8F1000FF1D001218D
:1053C000C8F80010EDE700002DE9F747002683B08C
:1053D0008A46040003D0BAF1000F08D011E0502033
:1053E00080F31188BFF34F8FBFF36F8FFEE7206C00
:1053F00038B1502080F31188BFF34F8FBFF36F8F08
:10540000FEE700F00FF9DFF8F4804FF000094FF0ED
:10541000805748B9059838B1502080F31188BFF300
:105420004F8FBFF36F8FFEE7FFF7F8FBA56BC5B19A
:1054300051462046FFF70AF86D1EA563206950B15A
:1054400004F1100000F0A6F928B1C8F80070BFF30D
:105450004F8FBFF36F8FFFF701FC012006B0BDE84F
:10546000F087059808B11EB106E0FFF7F7FB27E0CB
:105470006846FFF7D1FC0126FFF7F0FBFFF752FD6E
:10548000FFF7CCFB94F94400401C01D184F8449010
:1054900094F94500401C01D184F84590FFF7DEFBEC
:1054A00005A9684600F02CF8002820460AD0FFF72E
:1054B0009FFA00F0A7F92046FFF72EF90028B3D095
:1054C0000020CBE7FFF728F990B104F124000599FB
:1054D000FFF7B0FC2046FFF78BFA00F093F90028A5
:1054E000A2D1C8F80070BFF34F8FBFF36F8F9BE757
:1054F0002046FFF77DFA00F085F995E704ED00E01E
:105500002DE9F0410C46050011D0C4B1FFF786FB30
:10551000174BDA686E682068911B471C17D02F68FC
:105520001B6A9F4219D0964217D8012410E05020E0
:1055300080F31188BFF34F8FBFF36F8FFEE75020CA
:1055400080F31188BFF34F8FBFF36F8FFEE7002406
:10555000FFF784FB2046BDE8F081884205D9401A58
:1055600020602846FFF758FCF1E700202060DCE7C8
:105570004C0500202DE9FF5F8346DDE90E87994643
:1055800016468A469000FFF769FA05001CD05C2099
:10559000FFF764FA040014D00020256384F8590052
:1055A000CDE90240CDE900874B4632465146584688
:1055B000FFF718F82046FEF7B5FE012004B0BDE85D
:1055C000F09F2846FFF75EFB4FF0FF30F6E7F0B59F
:1055D00085B0DDE90B640A9DA6B1DCB15C270097BC
:1055E0002663022684F85960002604AFCDE90246FE
:1055F000CDE90057FEF7F6FF2046FEF793FE04982C
:1056000005B0F0BD502080F31188BFF34F8FBFF37A
:105610006F8FFEE7502080F31188BFF34F8FBFF3E9
:105620006F8FFEE70548416919B1006B18B1002082
:105630007047012070470220704700004C05002091
:105640000148C068704700004C0500202DE9F0417A
:105650002E4C0027206B28B1A069401CA061384661
:10566000BDE8F081E668761CE66013D1606B0068E7
:1056700038B1502080F31188BFF34F8FBFF36F8F85
:10568000FEE7606BA16B6163A063206A401C20622F
:10569000FFF72EF9A06ADFF87880864209D3606BA5
:1056A0000068A0B1606BC068C5686868864211D2A6
:1056B000A0622068C06A00EB800158F82100012830
:1056C00000D90127E0690028C9D00127C7E74FF0BA
:1056D000FF30EDE7281DFFF745FAA86A18B105F17C
:1056E0001800FFF73FFAE86A2169884200D9206173
:1056F00000EB800108EB8100291DFFF783FAE86ABF
:105700002168C96A8842CAD30127C8E74C0500202E
:10571000E00A002070B504004FF0000133D01B4DAB
:105720002868844207D0502080F31188BFF34F8F40
:10573000BFF36F8FFEE7206D38B1401E2065E36C2C
:10574000E26A9A421FD040B11DE0502080F31188D8
:10575000BFF34F8FBFF36F8FFEE7201DFFF702FAF5
:10576000E06CE062C0F13800A061E06A296988421B
:1057700000D92861064900EB800001EB8000211D63
:10578000FFF740FA0121084670BD00004C050020DB
:10579000E00A002070B5C068C46854B104F1180074
:1057A0000646FFF7DFF9144D286B50B13146134818
:1057B00015E0502080F31188BFF34F8FBFF36F8F38
:1057C000FEE7201DFFF7CEF9E06A2969884200D97B
:1057D00028610B4900EB800001EB8000211DFFF7E1
:1057E00011FAE06A2968C96A884202D90120E86191
:1057F00070BD002070BD00004C050020680F002027
:10580000E00A00202DE9F0472C4D00242746286BA4
:1058100038B1FFF703FA286B401E2863286B40B1AC
:1058200046E0502080F31188BFF34F8FBFF36F8F96
:10583000FEE7A968224E0120D1B3A6F59169804602
:105840003068E0B1F068C46804F11800FFF78AF925
:10585000201DFFF787F9E06A2969884200D928618D
:1058600000EB800109EB8100211DFFF7CBF9E06A15
:105870002968C96A8842E3D3C5F81C80E0E70CB107
:10588000FFF736F8AC694CB14FEA0806FFF7DEFEC9
:1058900000B1EE61641EF9D10020A861E86938B159
:1058A0000849012738070860BFF34F8FBFF36F8F98
:1058B000FFF7D4F93846BDE8F08700004C0500201A
:1058C000680F002004ED00E010B586B0FEF792FDF1
:1058D000114C2068B8B100200390049005AA04A9D7
:1058E00003A8FFF75DF9DDE9032102208DE8070039
:1058F00000230AA10B48059AFFF769FE606010B10A
:1059000006B0012010BD502080F31188BFF34F8FE7
:10591000BFF36F8FFEE7000088050020546D7220F2
:1059200053766300CD4900082DE9FF411E4613461A
:1059300002000A9D4FF0000016D0144C2768002F7B
:105940000FD0CDE900130292062917DAFFF76AFE9D
:1059500002284FF000030FD0002269462068FFF7AD
:1059600023FC04B0BDE8F081502080F31188BFF320
:105970004F8FBFF36F8FFEE72A46EEE700233246D4
:1059800069463846FFF7C0FCEBE7000088050020B9
:1059900010B500290AD00878002807D005487844B7
:1059A000FBF776FA002801D0002010BD02487844A9
:1059B00010BD00007E020000760200000808A0F57D
:1059C00000114FEA3101704743004FEAD30C4FEA10
:1059D0003C0C43401FBF40070CF1605113F0FE4FD9
:1059E00070471CF0006F03D100200CF0004170479D
:1059F0000CF0004343EA507010B540EACC0000F0D0
:105A00000EF800BF000000924FEA0001FFF7D6BF7A
:105A10004FF000414FF00000A1F5002170470EF15A
:105A2000020E2EF0030E5EF8044B244204D44FEA1B
:105A30004102B2F17F4F11D84FEA4003B3F17F4FDB
:105A40000CD80ED14FEAD07CB2F17F4F0CEB4C0C4E
:105A50000CF1020C08BF4CEBD17C04E04FF0080CB9
:105A600001E04FEAD17C0CEB4C0324FA03F404F080
:105A70000704B4F1040C06D20EEB840CBDE8104010
:105A80004CF0010C6047DFE80CF0070802024FF011
:105A90000040A0F5800010BD0846420018BFD2F1BA
:105AA000807288BF00F0004010BD4FF04070E1EE02
:105AB000100A7047FAF738BFF05B000800000000DA
:105AC00000000000000000000000000000020000D4
:105AD000280000000000000000000000D05B00086B
